{
  "address": "0x9e5713fF7Cb48F974c86511b43621d3E947A6545",
  "abi": [
    {
      "inputs": [
        {
          "internalType": "contract IEntryPoint",
          "name": "_entryPoint",
          "type": "address"
        }
      ],
      "stateMutability": "nonpayable",
      "type": "constructor"
    },
    {
      "inputs": [],
      "name": "accountImplementation",
      "outputs": [
        {
          "internalType": "contract NonZKGoogleAccount",
          "name": "",
          "type": "address"
        }
      ],
      "stateMutability": "view",
      "type": "function"
    },
    {
      "inputs": [
        {
          "internalType": "address",
          "name": "owner",
          "type": "address"
        },
        {
          "internalType": "uint256",
          "name": "salt",
          "type": "uint256"
        },
        {
          "internalType": "string",
          "name": "sub",
          "type": "string"
        },
        {
          "internalType": "string",
          "name": "recoveryNonce",
          "type": "string"
        }
      ],
      "name": "createAccount",
      "outputs": [
        {
          "internalType": "contract NonZKGoogleAccount",
          "name": "ret",
          "type": "address"
        }
      ],
      "stateMutability": "nonpayable",
      "type": "function"
    },
    {
      "inputs": [
        {
          "internalType": "address",
          "name": "owner",
          "type": "address"
        },
        {
          "internalType": "uint256",
          "name": "salt",
          "type": "uint256"
        },
        {
          "internalType": "string",
          "name": "sub",
          "type": "string"
        },
        {
          "internalType": "string",
          "name": "recoveryNonce",
          "type": "string"
        }
      ],
      "name": "getAddress",
      "outputs": [
        {
          "internalType": "address",
          "name": "",
          "type": "address"
        }
      ],
      "stateMutability": "view",
      "type": "function"
    }
  ],
  "transactionHash": "0x6054f071510da2ed8c3d873292c3874755f9981e5ad79870fe7c2fe671ee3e6d",
  "args": [
    "0x5FF137D4b0FDCD49DcA30c7CF57E578a026d2789"
  ],
  "numDeployments": 1,
  "solcInputHash": "f437ab568e38c0de5e1068397b19d404",
  "bytecode": "0x60a060405234801561001057600080fd5b506040516151fd3803806151fd83398101604081905261002f91610088565b8060405161003c9061007b565b6001600160a01b039091168152602001604051809103906000f080158015610068573d6000803e3d6000fd5b506001600160a01b0316608052506100b8565b61432e80610ecf83390190565b60006020828403121561009a57600080fd5b81516001600160a01b03811681146100b157600080fd5b9392505050565b608051610df06100df6000396000818160510152818160ef01526102150152610df06000f3fe60806040523480156200001157600080fd5b5060043610620000465760003560e01c806311464fbe146200004b5780633740235c146200008f578063a703e66714620000a6575b600080fd5b620000737f000000000000000000000000000000000000000000000000000000000000000081565b6040516001600160a01b03909116815260200160405180910390f35b62000073620000a03660046200038e565b620000bd565b62000073620000b736600462000494565b620001a8565b60006200019e8560001b60405180602001620000d99062000301565b6020820181038252601f19601f820116604052507f000000000000000000000000000000000000000000000000000000000000000089888888604051602401620001279493929190620005a4565b60408051601f19818403018152918152602080830180516001600160e01b0316639065714760e01b17905290516200016293929101620005ea565b60408051601f198184030181529082905262000182929160200162000618565b60405160208183030381529060405280519060200120620002c1565b9695505050505050565b600080620001f2888888888080601f0160208091040260200160405190810160405280939291908181526020018383808284376000920191909152508a9250899150620000bd9050565b90506001600160a01b0381163b80156200020f575090506200019e565b8760001b7f00000000000000000000000000000000000000000000000000000000000000008a898989896040516024016200024f9594939291906200064b565b60408051601f198184030181529181526020820180516001600160e01b0316639065714760e01b17905251620002859062000301565b62000292929190620005ea565b8190604051809103906000f5905080158015620002b3573d6000803e3d6000fd5b509998505050505050505050565b6000620002d0838330620002d7565b9392505050565b6000604051836040820152846020820152828152600b8101905060ff815360559020949350505050565b610727806200069483390190565b80356001600160a01b03811681146200032757600080fd5b919050565b634e487b7160e01b600052604160045260246000fd5b60008083601f8401126200035557600080fd5b50813567ffffffffffffffff8111156200036e57600080fd5b6020830191508360208285010111156200038757600080fd5b9250929050565b600080600080600060808688031215620003a757600080fd5b620003b2866200030f565b945060208601359350604086013567ffffffffffffffff80821115620003d757600080fd5b818801915088601f830112620003ec57600080fd5b8135818111156200040157620004016200032c565b604051601f8201601f19908116603f011681019083821181831017156200042c576200042c6200032c565b816040528281528b60208487010111156200044657600080fd5b8260208601602083013760006020848301015280975050505060608801359150808211156200047457600080fd5b50620004838882890162000342565b969995985093965092949392505050565b60008060008060008060808789031215620004ae57600080fd5b620004b9876200030f565b955060208701359450604087013567ffffffffffffffff80821115620004de57600080fd5b620004ec8a838b0162000342565b909650945060608901359150808211156200050657600080fd5b506200051589828a0162000342565b979a9699509497509295939492505050565b60005b83811015620005445781810151838201526020016200052a565b50506000910152565b600081518084526200056781602086016020860162000527565b601f01601f19169290920160200192915050565b81835281816020850137506000828201602090810191909152601f909101601f19169091010190565b6001600160a01b0385168152606060208201819052600090620005ca908301866200054d565b8281036040840152620005df8185876200057b565b979650505050505050565b6001600160a01b038316815260406020820181905260009062000610908301846200054d565b949350505050565b600083516200062c81846020880162000527565b8351908301906200064281836020880162000527565b01949350505050565b6001600160a01b03861681526060602082018190526000906200067290830186886200057b565b8281036040840152620006878185876200057b565b9897505050505050505056fe608060405260405161072738038061072783398101604081905261002291610319565b61002e82826000610035565b5050610436565b61003e8361006b565b60008251118061004b5750805b156100665761006483836100ab60201b6100291760201c565b505b505050565b610074816100d7565b6040516001600160a01b038216907fbc7cd75a20ee27fd9adebab32041f755214dbc6bffa90cc0225b39da2e5c2d3b90600090a250565b60606100d08383604051806060016040528060278152602001610700602791396101a9565b9392505050565b6100ea8161022260201b6100551760201c565b6101515760405162461bcd60e51b815260206004820152602d60248201527f455243313936373a206e657720696d706c656d656e746174696f6e206973206e60448201526c1bdd08184818dbdb9d1c9858dd609a1b60648201526084015b60405180910390fd5b806101887f360894a13ba1a3210667c828492db98dca3e2076cc3735a920a3ca505d382bbc60001b61023160201b6100641760201c565b80546001600160a01b0319166001600160a01b039290921691909117905550565b6060600080856001600160a01b0316856040516101c691906103e7565b600060405180830381855af49150503d8060008114610201576040519150601f19603f3d011682016040523d82523d6000602084013e610206565b606091505b50909250905061021886838387610234565b9695505050505050565b6001600160a01b03163b151590565b90565b606083156102a357825160000361029c576001600160a01b0385163b61029c5760405162461bcd60e51b815260206004820152601d60248201527f416464726573733a2063616c6c20746f206e6f6e2d636f6e74726163740000006044820152606401610148565b50816102ad565b6102ad83836102b5565b949350505050565b8151156102c55781518083602001fd5b8060405162461bcd60e51b81526004016101489190610403565b634e487b7160e01b600052604160045260246000fd5b60005b838110156103105781810151838201526020016102f8565b50506000910152565b6000806040838503121561032c57600080fd5b82516001600160a01b038116811461034357600080fd5b60208401519092506001600160401b038082111561036057600080fd5b818501915085601f83011261037457600080fd5b815181811115610386576103866102df565b604051601f8201601f19908116603f011681019083821181831017156103ae576103ae6102df565b816040528281528860208487010111156103c757600080fd5b6103d88360208301602088016102f5565b80955050505050509250929050565b600082516103f98184602087016102f5565b9190910192915050565b60208152600082518060208401526104228160408501602087016102f5565b601f01601f19169190910160400192915050565b6102bb806104456000396000f3fe60806040523661001357610011610017565b005b6100115b610027610022610067565b61009f565b565b606061004e838360405180606001604052806027815260200161025f602791396100c3565b9392505050565b6001600160a01b03163b151590565b90565b600061009a7f360894a13ba1a3210667c828492db98dca3e2076cc3735a920a3ca505d382bbc546001600160a01b031690565b905090565b3660008037600080366000845af43d6000803e8080156100be573d6000f35b3d6000fd5b6060600080856001600160a01b0316856040516100e0919061020f565b600060405180830381855af49150503d806000811461011b576040519150601f19603f3d011682016040523d82523d6000602084013e610120565b606091505b50915091506101318683838761013b565b9695505050505050565b606083156101af5782516000036101a8576001600160a01b0385163b6101a85760405162461bcd60e51b815260206004820152601d60248201527f416464726573733a2063616c6c20746f206e6f6e2d636f6e747261637400000060448201526064015b60405180910390fd5b50816101b9565b6101b983836101c1565b949350505050565b8151156101d15781518083602001fd5b8060405162461bcd60e51b815260040161019f919061022b565b60005b838110156102065781810151838201526020016101ee565b50506000910152565b600082516102218184602087016101eb565b9190910192915050565b602081526000825180602084015261024a8160408501602087016101eb565b601f01601f1916919091016040019291505056fe416464726573733a206c6f772d6c6576656c2064656c65676174652063616c6c206661696c6564a264697066735822122047c96fd97037eafd7c208e77a83e655da1bdd54ad0afd7db9304b763d6aab8e564736f6c63430008120033416464726573733a206c6f772d6c6576656c2064656c65676174652063616c6c206661696c6564a264697066735822122089ecb8a9312cbd0dc316bfb1e85fa4a2539c3025b0a634a9a98cdad85bc0ea1264736f6c6343000812003360c0604052306080523480156200001557600080fd5b506040516200432e3803806200432e833981016040819052620000389162000119565b6001600160a01b03811660a052806200005062000058565b50506200014b565b600054610100900460ff1615620000c55760405162461bcd60e51b815260206004820152602760248201527f496e697469616c697a61626c653a20636f6e747261637420697320696e697469604482015266616c697a696e6760c81b606482015260840160405180910390fd5b60005460ff9081161462000117576000805460ff191660ff9081179091556040519081527f7f26b83ff96e1f2b6a682f133852f6798a09c465da95921460cefb38474024989060200160405180910390a15b565b6000602082840312156200012c57600080fd5b81516001600160a01b03811681146200014457600080fd5b9392505050565b60805160a051614170620001be600039600081816103c101528181610857015281816108d801528181610e9c0152818161108d015281816110d40152818161135101526119d701526000818161075a0152818161079a01528181610969015281816109a90152610a3c01526141706000f3fe6080604052600436106101695760003560e01c80638da5cb5b116100d1578063bc197c811161008a578063c54124be11610064578063c54124be14610469578063d087d2881461048b578063ed894cd3146104a0578063f23a6e61146104b557600080fd5b8063bc197c8114610405578063c399ec8814610434578063c4d66de81461044957600080fd5b80638da5cb5b146103145780639015799d146103525780639065714714610372578063a6d83ea814610392578063b0d691fe146103b2578063b61d27f6146103e557600080fd5b80633a871cdd116101235780633a871cdd146102765780634a58db19146102a45780634d44560d146102ac5780634f1ef286146102cc57806352d1902d146102df5780637937b8f7146102f457600080fd5b806223de291461017557806301ffc9a71461019c578063150b7a02146101d157806318dfb3c71461021657806330da91dc146102365780633659cfe61461025657600080fd5b3661017057005b600080fd5b34801561018157600080fd5b5061019a61019036600461326f565b5050505050505050565b005b3480156101a857600080fd5b506101bc6101b736600461331f565b6104e2565b60405190151581526020015b60405180910390f35b3480156101dd57600080fd5b506101fd6101ec366004613349565b630a85bd0160e11b95945050505050565b6040516001600160e01b031990911681526020016101c8565b34801561022257600080fd5b5061019a6102313660046133ff565b610534565b34801561024257600080fd5b5061019a61025136600461346a565b610634565b34801561026257600080fd5b5061019a610271366004613542565b610750565b34801561028257600080fd5b5061029661029136600461355f565b61082f565b6040519081526020016101c8565b61019a610855565b3480156102b857600080fd5b5061019a6102c73660046135b2565b6108ce565b61019a6102da366004613669565b61095f565b3480156102eb57600080fd5b50610296610a2f565b34801561030057600080fd5b506101bc61030f3660046136cc565b610ae2565b34801561032057600080fd5b5060005461033a906201000090046001600160a01b031681565b6040516001600160a01b0390911681526020016101c8565b34801561035e57600080fd5b506101bc61036d36600461370d565b610b87565b34801561037e57600080fd5b5061019a61038d3660046137c6565b610cd2565b34801561039e57600080fd5b506101bc6103ad3660046136cc565b610dba565b3480156103be57600080fd5b507f000000000000000000000000000000000000000000000000000000000000000061033a565b3480156103f157600080fd5b5061019a61040036600461383b565b610e33565b34801561041157600080fd5b506101fd61042036600461388a565b63bc197c8160e01b98975050505050505050565b34801561044057600080fd5b50610296610e7c565b34801561045557600080fd5b5061019a610464366004613542565b610f0d565b34801561047557600080fd5b5061047e610fd8565b6040516101c89190613977565b34801561049757600080fd5b50610296611066565b3480156104ac57600080fd5b5061047e6110bc565b3480156104c157600080fd5b506101fd6104d036600461398a565b63f23a6e6160e01b9695505050505050565b60006001600160e01b03198216630a85bd0160e11b148061051357506001600160e01b03198216630271189760e51b145b8061052e57506001600160e01b031982166301ffc9a760e01b145b92915050565b61053c6110c9565b8281146105865760405162461bcd60e51b815260206004820152601360248201527277726f6e67206172726179206c656e6774687360681b60448201526064015b60405180910390fd5b60005b8381101561062d5761061b8585838181106105a6576105a66139f3565b90506020020160208101906105bb9190613542565b60008585858181106105cf576105cf6139f3565b90506020028101906105e19190613a09565b8080601f01602080910402602001604051908101604052809392919081815260200183838082843760009201919091525061115e92505050565b8061062581613a65565b915050610589565b5050505050565b610642888888888888610b87565b6106815760405162461bcd60e51b815260206004820152601060248201526f1d995c9a599e54da59c819985a5b195960821b604482015260640161057d565b61068b8686610dba565b6106ca5760405162461bcd60e51b815260206004820152601060248201526f1d995c9a599e54dd588819985a5b195960821b604482015260640161057d565b6106d48686610ae2565b6107155760405162461bcd60e51b81526020600482015260126024820152711d995c9a599e539bdb98d94819985a5b195960721b604482015260640161057d565b6000805462010000600160b01b031916620100006001600160a01b038c16021790556002610744828483613afe565b50505050505050505050565b6001600160a01b037f00000000000000000000000000000000000000000000000000000000000000001630036107985760405162461bcd60e51b815260040161057d90613bbd565b7f00000000000000000000000000000000000000000000000000000000000000006001600160a01b03166107e1600080516020613fb4833981519152546001600160a01b031690565b6001600160a01b0316146108075760405162461bcd60e51b815260040161057d90613c09565b610810816111ce565b6040805160008082526020820190925261082c918391906111d6565b50565b6000610839611346565b61084384846113be565b905061084e8261146a565b9392505050565b7f000000000000000000000000000000000000000000000000000000000000000060405163b760faf960e01b81523060048201526001600160a01b03919091169063b760faf99034906024016000604051808303818588803b1580156108ba57600080fd5b505af115801561062d573d6000803e3d6000fd5b6108d66114b7565b7f000000000000000000000000000000000000000000000000000000000000000060405163040b850f60e31b81526001600160a01b03848116600483015260248201849052919091169063205c287890604401600060405180830381600087803b15801561094357600080fd5b505af1158015610957573d6000803e3d6000fd5b505050505050565b6001600160a01b037f00000000000000000000000000000000000000000000000000000000000000001630036109a75760405162461bcd60e51b815260040161057d90613bbd565b7f00000000000000000000000000000000000000000000000000000000000000006001600160a01b03166109f0600080516020613fb4833981519152546001600160a01b031690565b6001600160a01b031614610a165760405162461bcd60e51b815260040161057d90613c09565b610a1f826111ce565b610a2b828260016111d6565b5050565b6000306001600160a01b037f00000000000000000000000000000000000000000000000000000000000000001614610acf5760405162461bcd60e51b815260206004820152603860248201527f555550535570677261646561626c653a206d757374206e6f742062652063616c60448201527f6c6564207468726f7567682064656c656761746563616c6c0000000000000000606482015260840161057d565b50600080516020613fb483398151915290565b6000610b2383838080601f01602080910402602001604051908101604052809392919081815260200183838082843760009201919091525061150e92505050565b604051602001610b339190613c55565b604051602081830303815290604052805190602001206002604051602001610b5b9190613c71565b6040516020818303038152906040528051906020012003610b7e5750600161052e565b50600092915050565b600080610bc986868080601f01602080910402602001604051908101604052809392919081815260200183838082843760009201919091525061180d92505050565b9050610cb36002898984604051602001610be593929190613ce7565b60408051601f1981840301815290829052610bff91613c55565b602060405180830381855afa158015610c1c573d6000803e3d6000fd5b5050506040513d601f19601f82011682018060405250810190610c3f9190613d17565b604051806101200160405280610100815260200161403b61010091396040518060400160405280600381526020016201000160e81b81525087878080601f01602080910402602001604051908101604052809392919081815260200183838082843760009201919091525061195f92505050565b15610cc2576001915050610cc8565b60009150505b9695505050505050565b600054610100900460ff1615808015610cf25750600054600160ff909116105b80610d0c5750303b158015610d0c575060005460ff166001145b610d285760405162461bcd60e51b815260040161057d90613d30565b6000805460ff191660011790558015610d4b576000805461ff0019166101001790555b610d54846119a4565b6001610d608482613d7e565b506002610d6d8382613d7e565b508015610db4576000805461ff0019169055604051600181527f7f26b83ff96e1f2b6a682f133852f6798a09c465da95921460cefb38474024989060200160405180910390a15b50505050565b6000610dfb83838080601f016020809104026020016040519081016040528093929190818152602001838380828437600092019190915250611a2092505050565b604051602001610e0b9190613c55565b604051602081830303815290604052805190602001206001604051602001610b5b9190613c71565b610e3b6110c9565b610db4848484848080601f01602080910402602001604051908101604052809392919081815260200183838082843760009201919091525061115e92505050565b6040516370a0823160e01b81523060048201526000906001600160a01b037f000000000000000000000000000000000000000000000000000000000000000016906370a08231906024015b602060405180830381865afa158015610ee4573d6000803e3d6000fd5b505050506040513d601f19601f82011682018060405250810190610f089190613d17565b905090565b600054610100900460ff1615808015610f2d5750600054600160ff909116105b80610f475750303b158015610f47575060005460ff166001145b610f635760405162461bcd60e51b815260040161057d90613d30565b6000805460ff191660011790558015610f86576000805461ff0019166101001790555b610f8f826119a4565b8015610a2b576000805461ff0019169055604051600181527f7f26b83ff96e1f2b6a682f133852f6798a09c465da95921460cefb38474024989060200160405180910390a15050565b60018054610fe590613a7e565b80601f016020809104026020016040519081016040528092919081815260200182805461101190613a7e565b801561105e5780601f106110335761010080835404028352916020019161105e565b820191906000526020600020905b81548152906001019060200180831161104157829003601f168201915b505050505081565b604051631aab3f0d60e11b8152306004820152600060248201819052906001600160a01b037f000000000000000000000000000000000000000000000000000000000000000016906335567e1a90604401610ec7565b60028054610fe590613a7e565b336001600160a01b037f000000000000000000000000000000000000000000000000000000000000000016148061111057506000546201000090046001600160a01b031633145b61115c5760405162461bcd60e51b815260206004820181905260248201527f6163636f756e743a206e6f74204f776e6572206f7220456e747279506f696e74604482015260640161057d565b565b600080846001600160a01b0316848460405161117a9190613c55565b60006040518083038185875af1925050503d80600081146111b7576040519150601f19603f3d011682016040523d82523d6000602084013e6111bc565b606091505b50915091508161062d57805160208201fd5b61082c6114b7565b7f4910fdfa16fed3260ed0e7147f7cc6da11a60208b5b9406d12a635614ffd91435460ff161561120e5761120983611c84565b505050565b826001600160a01b03166352d1902d6040518163ffffffff1660e01b8152600401602060405180830381865afa925050508015611268575060408051601f3d908101601f1916820190925261126591810190613d17565b60015b6112cb5760405162461bcd60e51b815260206004820152602e60248201527f45524331393637557067726164653a206e657720696d706c656d656e7461746960448201526d6f6e206973206e6f74205555505360901b606482015260840161057d565b600080516020613fb4833981519152811461133a5760405162461bcd60e51b815260206004820152602960248201527f45524331393637557067726164653a20756e737570706f727465642070726f786044820152681a58589b195555525160ba1b606482015260840161057d565b50611209838383611d20565b336001600160a01b037f0000000000000000000000000000000000000000000000000000000000000000161461115c5760405162461bcd60e51b815260206004820152601c60248201527f6163636f756e743a206e6f742066726f6d20456e747279506f696e7400000000604482015260640161057d565b7f19457468657265756d205369676e6564204d6573736167653a0a3332000000006000908152601c829052603c812061143b6113fe610140860186613a09565b8080601f0160208091040260200160405190810160405280939291908181526020018383808284376000920191909152508593925050611d459050565b6000546201000090046001600160a01b0390811691161461146057600191505061052e565b5060009392505050565b801561082c57604051600090339060001990849084818181858888f193505050503d806000811461062d576040519150601f19603f3d011682016040523d82523d6000602084013e61062d565b6000546201000090046001600160a01b03163314806114d557503330145b61115c5760405162461bcd60e51b815260206004820152600a60248201526937b7363c9037bbb732b960b11b604482015260640161057d565b60606000808061151f85601e611d69565b925092509250826000146115695760405162461bcd60e51b81526020600482015260116024820152701294d3d3881c185c9cd94819985a5b1959607a1b604482015260640161057d565b60018260008151811061157e5761157e6139f3565b602002602001015160000151600481111561159b5761159b613e3d565b146115e85760405162461bcd60e51b815260206004820152601c60248201527f4578706563746564204a575420746f20626520616e206f626a65637400000000604482015260640161057d565b60015b818110156117ba576003838281518110611607576116076139f3565b602002602001015160000151600481111561162457611624613e3d565b146116415760405162461bcd60e51b815260040161057d90613e53565b6000611692848381518110611658576116586139f3565b602002602001015160200151858481518110611676576116766139f3565b602002602001015160600151896125719092919063ffffffff16565b90506116c4604051806040016040528060058152602001646e6f6e636560d81b8152508261263d90919063ffffffff16565b6000036117a7576003846116d9846001613e9b565b815181106116e9576116e96139f3565b602002602001015160000151600481111561170657611706613e3d565b146117535760405162461bcd60e51b815260206004820152601d60248201527f4578706563746564206e6f6e636520746f206265206120737472696e67000000604482015260640161057d565b61179c84611762846001613e9b565b81518110611772576117726139f3565b6020026020010151602001518584600161178c9190613e9b565b81518110611676576116766139f3565b979650505050505050565b6117b2600283613e9b565b9150506115eb565b60405162461bcd60e51b815260206004820152602260248201527f436f756c64206e6f742066696e64206e6f6e636520696e204a5754206f626a6560448201526118dd60f21b606482015260840161057d565b6060815160000361182c57505060408051602081019091526000815290565b6000604051806060016040528060408152602001613fd4604091399050600060038451600261185b9190613e9b565b6118659190613eae565b611870906004613ed0565b6001600160401b03811115611887576118876135de565b6040519080825280601f01601f1916602001820160405280156118b1576020820181803683370190505b509050600182016020820185865187015b8082101561191d576003820191508151603f8160121c168501518453600184019350603f81600c1c168501518453600184019350603f8160061c168501518453600184019350603f81168501518453506001830192506118c2565b5050600386510660018114611939576002811461194c57611954565b603d6001830353603d6002830353611954565b603d60018303535b509195945050505050565b600080606061196f848688612762565b909250905081801561199757506119946020825161198d9190613ee7565b82906127f8565b87145b925050505b949350505050565b6000805462010000600160b01b031916620100006001600160a01b038481168202929092178084556040519190048216927f0000000000000000000000000000000000000000000000000000000000000000909216917f47e55c76e7a6f1fd8996a1da8008c1ea29699cca35e7bcd057f2dec313b6e5de91a350565b606060008080611a3185601e611d69565b92509250925082600014611a7b5760405162461bcd60e51b81526020600482015260116024820152701294d3d3881c185c9cd94819985a5b1959607a1b604482015260640161057d565b600182600081518110611a9057611a906139f3565b6020026020010151600001516004811115611aad57611aad613e3d565b14611afa5760405162461bcd60e51b815260206004820152601c60248201527f4578706563746564204a575420746f20626520616e206f626a65637400000000604482015260640161057d565b60015b81811015611c3c576003838281518110611b1957611b196139f3565b6020026020010151600001516004811115611b3657611b36613e3d565b14611b535760405162461bcd60e51b815260040161057d90613e53565b6000611b6a848381518110611658576116586139f3565b9050611b9a6040518060400160405280600381526020016239bab160e91b8152508261263d90919063ffffffff16565b600003611c2957600384611baf846001613e9b565b81518110611bbf57611bbf6139f3565b6020026020010151600001516004811115611bdc57611bdc613e3d565b146117535760405162461bcd60e51b815260206004820152601b60248201527f45787065637465642073756220746f206265206120737472696e670000000000604482015260640161057d565b611c34600283613e9b565b915050611afd565b60405162461bcd60e51b815260206004820181905260248201527f436f756c64206e6f742066696e642073756220696e204a5754206f626a656374604482015260640161057d565b6001600160a01b0381163b611cf15760405162461bcd60e51b815260206004820152602d60248201527f455243313936373a206e657720696d706c656d656e746174696f6e206973206e60448201526c1bdd08184818dbdb9d1c9858dd609a1b606482015260840161057d565b600080516020613fb483398151915280546001600160a01b0319166001600160a01b0392909216919091179055565b611d2983612838565b600082511180611d365750805b1561120957610db48383612878565b6000806000611d54858561289d565b91509150611d61816128e2565b509392505050565b600060606000808590506000611d9960405180606001604052806000815260200160008152602001600081525090565b611da287612a2c565b602082015190965090915060009081611db96131e2565b86518551101561255957600087866000015181518110611ddb57611ddb6139f3565b01602001516001600160f81b0319169050607b60f81b811480611e0b5750605b60f81b6001600160f81b03198216145b15611eff5783611e1a81613a65565b945050611e27868b612ad5565b909750915086611e475750600399506000975061256a9650505050505050565b856040015160001914611e8a5789866040015181518110611e6a57611e6a6139f3565b602002602001015160a0018051809190611e8390613efa565b60ff169052505b607b60f81b6001600160f81b0319821614611ea6576002611ea9565b60015b82906004811115611ebc57611ebc613e3d565b90816004811115611ecf57611ecf613e3d565b905250855160208084019190915260016040840181905290870151611ef49190613ee7565b604087015250612545565b607d60f81b6001600160f81b031982161480611f285750605d60f81b6001600160f81b03198216145b15612119576000607d60f81b6001600160f81b0319831614611f4b576002611f4e565b60015b9050600060018860200151611f639190613ee7565b94505b8b8581518110611f7857611f786139f3565b6020026020010151935083604001518015611f9557508360800151155b1561204357816004811115611fac57611fac613e3d565b84516004811115611fbf57611fbf613e3d565b14611fdc575060019b506000995061256a98505050505050505050565b60001960408901528751611ff1906001613e9b565b8c8681518110612003576120036139f3565b6020026020010151606001818152505060018c8681518110612027576120276139f3565b6020908102919091010151901515608090910152506001612055565b8461204d81613f19565b955050611f66565b80612072575060019b506000995061256a98505050505050505050565b84156120ca578b858151811061208a5761208a6139f3565b60200260200101519350836040015180156120a757508360800151155b156120b857604088018590526120ca565b846120c281613f19565b955050612072565b84600003612111578b85815181106120e4576120e46139f3565b602002602001015193508360400151801561210157508360800151155b1561211157600f85900b60408901525b505050612545565b6001600160f81b03198116601160f91b036121ab57612139868b8a612b91565b9450841561215557509298506000965061256a95505050505050565b8361215f81613a65565b9450508560400151600019146121a55789866040015181518110612185576121856139f3565b602002602001015160a001805180919061219e90613efa565b60ff169052505b50612545565b600160fd1b6001600160f81b0319821614806121d45750601160f81b6001600160f81b03198216145b806121ec5750600960f91b6001600160f81b03198216145b806122045750600560fa1b6001600160f81b03198216145b1561220f5750612545565b6001600160f81b03198116601d60f91b036122355760018660200151611ef49190613ee7565b6001600160f81b03198116600b60fa1b036123c357856040015160001914158015612293575060028a876040015181518110612273576122736139f3565b602002602001015160000151600481111561229057612290613e3d565b14155b80156122d2575060018a8760400151815181106122b2576122b26139f3565b60200260200101516000015160048111156122cf576122cf613e3d565b14155b156121a557600186602001516122e89190613ee7565b92505b60028a84815181106122ff576122ff6139f3565b602002602001015160000151600481111561231c5761231c613e3d565b1480612356575060018a8481518110612337576123376139f3565b602002602001015160000151600481111561235457612354613e3d565b145b156123b15789838151811061236d5761236d6139f3565b60200260200101516040015180156123a05750898381518110612392576123926139f3565b602002602001015160800151155b156123b157604086018390526121a5565b826123bb81613f19565b9350506122eb565b600360fc1b6001600160f81b03198216108015906123ef5750603960f81b6001600160f81b0319821611155b806124075750602d60f81b6001600160f81b03198216145b8061241f5750603360f91b6001600160f81b03198216145b806124375750601d60fa1b6001600160f81b03198216145b8061244f5750603760f91b6001600160f81b03198216145b156124fc578560400151600019146124f15789866040015181518110612477576124776139f3565b602002602001015191506001600481111561249457612494613e3d565b825160048111156124a7576124a7613e3d565b14806124d657506003825160048111156124c3576124c3613e3d565b1480156124d6575060a082015160ff1615155b156124f15750600199506000975061256a9650505050505050565b612139868b8a612e34565b600160fd1b6001600160f81b03198216108015906125285750603f60f91b6001600160f81b0319821611155b156125435750600199506000975061256a9650505050505050565b505b84518561255182613a65565b905250611db9565b505050506020015160009550925050505b9250925092565b60608360006125808585613ee7565b6001600160401b03811115612597576125976135de565b6040519080825280601f01601f1916602001820160405280156125c1576020820181803683370190505b509050845b84811015612633578281815181106125e0576125e06139f3565b01602001516001600160f81b031916826125fa8884613ee7565b8151811061260a5761260a6139f3565b60200101906001600160f81b031916908160001a9053508061262b81613a65565b9150506125c6565b5095945050505050565b815181516000918491849190811115612654575080515b60005b8181101561272857828181518110612671576126716139f3565b602001015160f81c60f81b6001600160f81b031916848281518110612698576126986139f3565b01602001516001600160f81b03191610156126bb5760001994505050505061052e565b8281815181106126cd576126cd6139f3565b602001015160f81c60f81b6001600160f81b0319168482815181106126f4576126f46139f3565b01602001516001600160f81b031916111561271657600194505050505061052e565b8061272081613a65565b915050612657565b5081518351101561274057600019935050505061052e565b815183511115612756576001935050505061052e565b6000935050505061052e565b60006060600085518551855188888860405160200161278696959493929190613f30565b604051602081830303815290604052905083516001600160401b038111156127b0576127b06135de565b6040519080825280601f01601f1916602001820160405280156127da576020820181803683370190505b50915083516020830182516020840160055afa925050935093915050565b600080612806836020613e9b565b9050808451101561282e57838360405163de59ba1360e01b815260040161057d929190613f91565b9092015192915050565b61284181611c84565b6040516001600160a01b038216907fbc7cd75a20ee27fd9adebab32041f755214dbc6bffa90cc0225b39da2e5c2d3b90600090a250565b606061084e838360405180606001604052806027815260200161401460279139612fc0565b60008082516041036128d35760208301516040840151606085015160001a6128c78782858561302e565b945094505050506128db565b506000905060025b9250929050565b60008160048111156128f6576128f6613e3d565b036128fe5750565b600181600481111561291257612912613e3d565b0361295f5760405162461bcd60e51b815260206004820152601860248201527f45434453413a20696e76616c6964207369676e61747572650000000000000000604482015260640161057d565b600281600481111561297357612973613e3d565b036129c05760405162461bcd60e51b815260206004820152601f60248201527f45434453413a20696e76616c6964207369676e6174757265206c656e67746800604482015260640161057d565b60038160048111156129d4576129d4613e3d565b0361082c5760405162461bcd60e51b815260206004820152602260248201527f45434453413a20696e76616c6964207369676e6174757265202773272076616c604482015261756560f01b606482015260840161057d565b612a5060405180606001604052806000815260200160008152602001600081525090565b606060006040518060600160405280600081526020016000815260200160001981525090506000846001600160401b03811115612a8f57612a8f6135de565b604051908082528060200260200182016040528015612ac857816020015b612ab56131e2565b815260200190600190039081612aad5790505b5091959194509092505050565b6000612adf6131e2565b8251846020015110612b1d5760008360018551612afc9190613ee7565b81518110612b0c57612b0c6139f3565b6020026020010151915091506128db565b6040805160c08101825260008082526020808301829052928201819052606082018190526080820181905260a0820152908501518451829186918110612b6557612b656139f3565b6020026020010181905250846020018051809190612b8290613a65565b90525060019590945092505050565b825160009081612b9f6131e2565b865187612bab82613a65565b9052505b845187511015612e2657600085886000015181518110612bd157612bd16139f3565b01602001516001600160f81b0319169050601160f91b819003612c3457612bf88888612ad5565b909350915082612c0f57505050845250600361084e565b612c27826003612c20876001613e9b565b8b516130f2565b600094505050505061084e565b605c60f882901c148015612c54575085518851612c52906001613e9b565b105b15612e1057875188612c6582613a65565b905250875186518791908110612c7d57612c7d6139f3565b6020910101516001600160f81b031916601160f91b1480612cc6575085886000015181518110612caf57612caf6139f3565b6020910101516001600160f81b031916602f60f81b145b80612cf9575085886000015181518110612ce257612ce26139f3565b6020910101516001600160f81b031916601760fa1b145b80612d2c575085886000015181518110612d1557612d156139f3565b6020910101516001600160f81b031916603360f91b145b80612d5f575085886000015181518110612d4857612d486139f3565b6020910101516001600160f81b031916603960f91b145b80612d92575085886000015181518110612d7b57612d7b6139f3565b6020910101516001600160f81b031916603760f91b145b80612dc5575085886000015181518110612dae57612dae6139f3565b6020910101516001600160f81b031916603160f91b145b80612df8575085886000015181518110612de157612de16139f3565b6020910101516001600160f81b031916601d60fa1b145b15612e035750612e12565b505050845250600161084e565b505b865187612e1e82613a65565b905250612baf565b505084525060029392505050565b825160009081908180612e456131e2565b865189511015612f5a5786896000015181518110612e6557612e656139f3565b01602001516001600160f81b0319169250600160fd1b831480612e955750600960f81b6001600160f81b03198416145b80612ead5750600560f91b6001600160f81b03198416145b80612ec55750600d60f81b6001600160f81b03198416145b80612edd5750600b60fa1b6001600160f81b03198416145b80612ef55750607d60f81b6001600160f81b03198416145b80612f0d5750605d60f81b6001600160f81b03198416145b15612f1b5760019450612f5a565b602060f884901c1080612f325750607f60f884901c115b15612f46575050508552506001905061084e565b885189612f5282613a65565b905250612e45565b84612f6e575050508552506002905061084e565b612f788989612ad5565b909250905081612f91575050508552506003905061084e565b612fa2816004868c600001516130f2565b885189612fae82613f19565b90525060009998505050505050505050565b6060600080856001600160a01b031685604051612fdd9190613c55565b600060405180830381855af49150503d8060008114613018576040519150601f19603f3d011682016040523d82523d6000602084013e61301d565b606091505b5091509150610cc886838387613144565b6000807f7fffffffffffffffffffffffffffffff5d576e7357a4501ddfe92f46681b20a083111561306557506000905060036130e9565b6040805160008082526020820180845289905260ff881692820192909252606081018690526080810185905260019060a0016020604051602081039080840390855afa1580156130b9573d6000803e3d6000fd5b5050604051601f1901519150506001600160a01b0381166130e2576000600192509250506130e9565b9150600090505b94509492505050565b8383600481111561310557613105613e3d565b9081600481111561311857613118613e3d565b90525060208401919091526001604084018190526060840191909152608083015250600060a090910152565b606083156131b35782516000036131ac576001600160a01b0385163b6131ac5760405162461bcd60e51b815260206004820152601d60248201527f416464726573733a2063616c6c20746f206e6f6e2d636f6e7472616374000000604482015260640161057d565b508161199c565b61199c83838151156131c85781518083602001fd5b8060405162461bcd60e51b815260040161057d9190613977565b6040805160c08101909152806000815260006020820181905260408201819052606082018190526080820181905260a09091015290565b6001600160a01b038116811461082c57600080fd5b60008083601f84011261324057600080fd5b5081356001600160401b0381111561325757600080fd5b6020830191508360208285010111156128db57600080fd5b60008060008060008060008060c0898b03121561328b57600080fd5b883561329681613219565b975060208901356132a681613219565b965060408901356132b681613219565b95506060890135945060808901356001600160401b03808211156132d957600080fd5b6132e58c838d0161322e565b909650945060a08b01359150808211156132fe57600080fd5b5061330b8b828c0161322e565b999c989b5096995094979396929594505050565b60006020828403121561333157600080fd5b81356001600160e01b03198116811461084e57600080fd5b60008060008060006080868803121561336157600080fd5b853561336c81613219565b9450602086013561337c81613219565b93506040860135925060608601356001600160401b0381111561339e57600080fd5b6133aa8882890161322e565b969995985093965092949392505050565b60008083601f8401126133cd57600080fd5b5081356001600160401b038111156133e457600080fd5b6020830191508360208260051b85010111156128db57600080fd5b6000806000806040858703121561341557600080fd5b84356001600160401b038082111561342c57600080fd5b613438888389016133bb565b9096509450602087013591508082111561345157600080fd5b5061345e878288016133bb565b95989497509550505050565b600080600080600080600080600060a08a8c03121561348857600080fd5b893561349381613219565b985060208a01356001600160401b03808211156134af57600080fd5b6134bb8d838e0161322e565b909a50985060408c01359150808211156134d457600080fd5b6134e08d838e0161322e565b909850965060608c01359150808211156134f957600080fd5b6135058d838e0161322e565b909650945060808c013591508082111561351e57600080fd5b5061352b8c828d0161322e565b915080935050809150509295985092959850929598565b60006020828403121561355457600080fd5b813561084e81613219565b60008060006060848603121561357457600080fd5b83356001600160401b0381111561358a57600080fd5b8401610160818703121561359d57600080fd5b95602085013595506040909401359392505050565b600080604083850312156135c557600080fd5b82356135d081613219565b946020939093013593505050565b634e487b7160e01b600052604160045260246000fd5b60006001600160401b038084111561360e5761360e6135de565b604051601f8501601f19908116603f01168101908282118183101715613636576136366135de565b8160405280935085815286868601111561364f57600080fd5b858560208301376000602087830101525050509392505050565b6000806040838503121561367c57600080fd5b823561368781613219565b915060208301356001600160401b038111156136a257600080fd5b8301601f810185136136b357600080fd5b6136c2858235602084016135f4565b9150509250929050565b600080602083850312156136df57600080fd5b82356001600160401b038111156136f557600080fd5b6137018582860161322e565b90969095509350505050565b6000806000806000806060878903121561372657600080fd5b86356001600160401b038082111561373d57600080fd5b6137498a838b0161322e565b9098509650602089013591508082111561376257600080fd5b61376e8a838b0161322e565b9096509450604089013591508082111561378757600080fd5b5061379489828a0161322e565b979a9699509497509295939492505050565b600082601f8301126137b757600080fd5b61084e838335602085016135f4565b6000806000606084860312156137db57600080fd5b83356137e681613219565b925060208401356001600160401b038082111561380257600080fd5b61380e878388016137a6565b9350604086013591508082111561382457600080fd5b50613831868287016137a6565b9150509250925092565b6000806000806060858703121561385157600080fd5b843561385c81613219565b93506020850135925060408501356001600160401b0381111561387e57600080fd5b61345e8782880161322e565b60008060008060008060008060a0898b0312156138a657600080fd5b88356138b181613219565b975060208901356138c181613219565b965060408901356001600160401b03808211156138dd57600080fd5b6138e98c838d016133bb565b909850965060608b013591508082111561390257600080fd5b61390e8c838d016133bb565b909650945060808b01359150808211156132fe57600080fd5b60005b8381101561394257818101518382015260200161392a565b50506000910152565b60008151808452613963816020860160208601613927565b601f01601f19169290920160200192915050565b60208152600061084e602083018461394b565b60008060008060008060a087890312156139a357600080fd5b86356139ae81613219565b955060208701356139be81613219565b9450604087013593506060870135925060808701356001600160401b038111156139e757600080fd5b61379489828a0161322e565b634e487b7160e01b600052603260045260246000fd5b6000808335601e19843603018112613a2057600080fd5b8301803591506001600160401b03821115613a3a57600080fd5b6020019150368190038213156128db57600080fd5b634e487b7160e01b600052601160045260246000fd5b600060018201613a7757613a77613a4f565b5060010190565b600181811c90821680613a9257607f821691505b602082108103613ab257634e487b7160e01b600052602260045260246000fd5b50919050565b601f82111561120957600081815260208120601f850160051c81016020861015613adf5750805b601f850160051c820191505b8181101561095757828155600101613aeb565b6001600160401b03831115613b1557613b156135de565b613b2983613b238354613a7e565b83613ab8565b6000601f841160018114613b5d5760008515613b455750838201355b600019600387901b1c1916600186901b17835561062d565b600083815260209020601f19861690835b82811015613b8e5786850135825560209485019460019092019101613b6e565b5086821015613bab5760001960f88860031b161c19848701351681555b505060018560011b0183555050505050565b6020808252602c908201527f46756e6374696f6e206d7573742062652063616c6c6564207468726f7567682060408201526b19195b1959d85d1958d85b1b60a21b606082015260800190565b6020808252602c908201527f46756e6374696f6e206d7573742062652063616c6c6564207468726f7567682060408201526b6163746976652070726f787960a01b606082015260800190565b60008251613c67818460208701613927565b9190910192915050565b6000808354613c7f81613a7e565b60018281168015613c975760018114613cac57613cdb565b60ff1984168752821515830287019450613cdb565b8760005260208060002060005b85811015613cd25781548a820152908401908201613cb9565b50505082870194505b50929695505050505050565b828482376000838201601760f91b81528351613d0a816001840160208801613927565b0160010195945050505050565b600060208284031215613d2957600080fd5b5051919050565b6020808252602e908201527f496e697469616c697a61626c653a20636f6e747261637420697320616c72656160408201526d191e481a5b9a5d1a585b1a5e995960921b606082015260800190565b81516001600160401b03811115613d9757613d976135de565b613dab81613da58454613a7e565b84613ab8565b602080601f831160018114613de05760008415613dc85750858301515b600019600386901b1c1916600185901b178555610957565b600085815260208120601f198616915b82811015613e0f57888601518255948401946001909101908401613df0565b5085821015613e2d5787850151600019600388901b60f8161c191681555b5050505050600190811b01905550565b634e487b7160e01b600052602160045260246000fd5b60208082526028908201527f4578706563746564204a575420746f20636f6e7461696e206f6e6c7920737472604082015267696e67206b65797360c01b606082015260800190565b8082018082111561052e5761052e613a4f565b600082613ecb57634e487b7160e01b600052601260045260246000fd5b500490565b808202811582820484141761052e5761052e613a4f565b8181038181111561052e5761052e613a4f565b600060ff821660ff8103613f1057613f10613a4f565b60010192915050565b600081613f2857613f28613a4f565b506000190190565b86815285602082015284604082015260008451613f54816060850160208901613927565b845190830190613f6b816060840160208901613927565b8451910190613f81816060840160208801613927565b0160600198975050505050505050565b604081526000613fa4604083018561394b565b9050826020830152939250505056fe360894a13ba1a3210667c828492db98dca3e2076cc3735a920a3ca505d382bbc4142434445464748494a4b4c4d4e4f505152535455565758595a6162636465666768696a6b6c6d6e6f707172737475767778797a303132333435363738392b2f416464726573733a206c6f772d6c6576656c2064656c65676174652063616c6c206661696c6564c61e4b8d980041ab0c39de06ed6b03187e9e3c6eb6649ec58176d3ed4e5a004a1422a0ee0098f6a0d5d1a364eb18a3e866dd59d8eda78008eba5966868be01baba31c2756a30bb7c2c98fab5bd55d8eb17d6f22fbc3057649f9796c49283d25fd94175ea3b4c1d1e055a29feb5c3ec9984a8b9b280cf1d6171faaef7e53b9891d3b76f58fcb1e03a4a7278d76d0c1d76e3b081f4dc233bba4d90b351949faafb38e9cce83190cdf0160dfbbd8d633bd505561fee13dcb7547f7b6c40797c79cfa13d809e45e2e6a82e07abcae2df7bad1e14af0fa633144f68bc4183ee428a5e9ca89d9e35381c6087cce73a6ab5db5728cc2801754c29fc9d89d2f3fdb84e6ba2646970667358221220ff15723739042523b1b415fc60fcc5bc4f16fec5116229df8caf867b60f358d464736f6c63430008120033",
  "devdoc": {
    "kind": "dev",
    "methods": {},
    "version": 1
  },
  "userdoc": {
    "kind": "user",
    "methods": {
      "createAccount(address,uint256,string,string)": {
        "notice": "create an account, and return its address. returns the address even if the account is already deployed. Note that during UserOperation execution, this method is called only if the account is not deployed. This method returns an existing account address so that entryPoint.getSenderAddress() would work even after account creation"
      },
      "getAddress(address,uint256,string,string)": {
        "notice": "calculate the counterfactual address of this account as it would be returned by createAccount()"
      }
    },
    "notice": "A sample factory contract for NonZKGoogleAccount A UserOperations \"initCode\" holds the address of the factory, and a method call (to createAccount, in this sample factory). The factory's createAccount returns the target account address even if it is already installed. This way, the entryPoint.getSenderAddress() can be called either before or after the account is created.",
    "version": 1
  },
  "storageLayout": {
    "storage": [],
    "types": null
  }
}