{
  "address": "0xFCadB6763A18d4A8f94d30E44a692Cc08eCC8837",
  "abi": [
    {
      "inputs": [
        {
          "internalType": "contract IEntryPoint",
          "name": "_entryPoint",
          "type": "address"
        }
      ],
      "stateMutability": "nonpayable",
      "type": "constructor"
    },
    {
      "inputs": [],
      "name": "accountImplementation",
      "outputs": [
        {
          "internalType": "contract NonZKGoogleAccount",
          "name": "",
          "type": "address"
        }
      ],
      "stateMutability": "view",
      "type": "function"
    },
    {
      "inputs": [
        {
          "internalType": "address",
          "name": "owner",
          "type": "address"
        },
        {
          "internalType": "uint256",
          "name": "salt",
          "type": "uint256"
        },
        {
          "internalType": "string",
          "name": "sub",
          "type": "string"
        }
      ],
      "name": "createAccount",
      "outputs": [
        {
          "internalType": "contract NonZKGoogleAccount",
          "name": "ret",
          "type": "address"
        }
      ],
      "stateMutability": "nonpayable",
      "type": "function"
    },
    {
      "inputs": [
        {
          "internalType": "address",
          "name": "owner",
          "type": "address"
        },
        {
          "internalType": "uint256",
          "name": "salt",
          "type": "uint256"
        },
        {
          "internalType": "string",
          "name": "sub",
          "type": "string"
        }
      ],
      "name": "getAddress",
      "outputs": [
        {
          "internalType": "address",
          "name": "",
          "type": "address"
        }
      ],
      "stateMutability": "view",
      "type": "function"
    }
  ],
  "transactionHash": "0xc7e0966fa062fa33ac73629e39a6dce40b9f72f09007a5f1d98c4d09fc8fbd42",
  "args": [
    "0x5FF137D4b0FDCD49DcA30c7CF57E578a026d2789"
  ],
  "numDeployments": 2,
  "solcInputHash": "a907dc5a06bec872fef7f101d7b94f61",
  "bytecode": "0x60a060405234801561001057600080fd5b506040516153f73803806153f783398101604081905261002f91610088565b8060405161003c9061007b565b6001600160a01b039091168152602001604051809103906000f080158015610068573d6000803e3d6000fd5b506001600160a01b0316608052506100b8565b61463780610dc083390190565b60006020828403121561009a57600080fd5b81516001600160a01b03811681146100b157600080fd5b9392505050565b608051610ce16100df6000396000818160510152818160ef015261020b0152610ce16000f3fe60806040523480156200001157600080fd5b5060043610620000465760003560e01c806311464fbe146200004b57806360bcc363146200008f578063f87ffab114620000a6575b600080fd5b620000737f000000000000000000000000000000000000000000000000000000000000000081565b6040516001600160a01b03909116815260200160405180910390f35b62000073620000a036600462000332565b620000bd565b62000073620000b736600462000409565b620001a2565b60006200019a8360001b60405180602001620000d990620002f1565b6020820181038252601f19601f820116604052507f0000000000000000000000000000000000000000000000000000000000000000878660405160240162000123929190620004eb565b60408051601f19818403018152918152602080830180516001600160e01b03166379ccf11760e11b17905290516200015e93929101620004eb565b60408051601f19818403018152908290526200017e929160200162000511565b60405160208183030381529060405280519060200120620002b1565b949350505050565b600080620001e8868686868080601f016020809104026020016040519081016040528093929190818152602001838380828437600092019190915250620000bd92505050565b90506001600160a01b0381163b801562000205575090506200019a565b8560001b7f0000000000000000000000000000000000000000000000000000000000000000888787604051602401620002419392919062000544565b60408051601f198184030181529181526020820180516001600160e01b03166379ccf11760e11b179052516200027790620002f1565b62000284929190620004eb565b8190604051809103906000f5905080158015620002a5573d6000803e3d6000fd5b50979650505050505050565b6000620002c0838330620002c7565b9392505050565b6000604051836040820152846020820152828152600b8101905060ff815360559020949350505050565b610727806200058583390190565b80356001600160a01b03811681146200031757600080fd5b919050565b634e487b7160e01b600052604160045260246000fd5b6000806000606084860312156200034857600080fd5b6200035384620002ff565b925060208401359150604084013567ffffffffffffffff808211156200037857600080fd5b818601915086601f8301126200038d57600080fd5b813581811115620003a257620003a26200031c565b604051601f8201601f19908116603f01168101908382118183101715620003cd57620003cd6200031c565b81604052828152896020848701011115620003e757600080fd5b8260208601602083013760006020848301015280955050505050509250925092565b600080600080606085870312156200042057600080fd5b6200042b85620002ff565b935060208501359250604085013567ffffffffffffffff808211156200045057600080fd5b818701915087601f8301126200046557600080fd5b8135818111156200047557600080fd5b8860208285010111156200048857600080fd5b95989497505060200194505050565b60005b83811015620004b45781810151838201526020016200049a565b50506000910152565b60008151808452620004d781602086016020860162000497565b601f01601f19169290920160200192915050565b6001600160a01b03831681526040602082018190526000906200019a90830184620004bd565b600083516200052581846020880162000497565b8351908301906200053b81836020880162000497565b01949350505050565b6001600160a01b03841681526040602082018190528101829052818360608301376000818301606090810191909152601f909201601f191601019291505056fe608060405260405161072738038061072783398101604081905261002291610319565b61002e82826000610035565b5050610436565b61003e8361006b565b60008251118061004b5750805b156100665761006483836100ab60201b6100291760201c565b505b505050565b610074816100d7565b6040516001600160a01b038216907fbc7cd75a20ee27fd9adebab32041f755214dbc6bffa90cc0225b39da2e5c2d3b90600090a250565b60606100d08383604051806060016040528060278152602001610700602791396101a9565b9392505050565b6100ea8161022260201b6100551760201c565b6101515760405162461bcd60e51b815260206004820152602d60248201527f455243313936373a206e657720696d706c656d656e746174696f6e206973206e60448201526c1bdd08184818dbdb9d1c9858dd609a1b60648201526084015b60405180910390fd5b806101887f360894a13ba1a3210667c828492db98dca3e2076cc3735a920a3ca505d382bbc60001b61023160201b6100641760201c565b80546001600160a01b0319166001600160a01b039290921691909117905550565b6060600080856001600160a01b0316856040516101c691906103e7565b600060405180830381855af49150503d8060008114610201576040519150601f19603f3d011682016040523d82523d6000602084013e610206565b606091505b50909250905061021886838387610234565b9695505050505050565b6001600160a01b03163b151590565b90565b606083156102a357825160000361029c576001600160a01b0385163b61029c5760405162461bcd60e51b815260206004820152601d60248201527f416464726573733a2063616c6c20746f206e6f6e2d636f6e74726163740000006044820152606401610148565b50816102ad565b6102ad83836102b5565b949350505050565b8151156102c55781518083602001fd5b8060405162461bcd60e51b81526004016101489190610403565b634e487b7160e01b600052604160045260246000fd5b60005b838110156103105781810151838201526020016102f8565b50506000910152565b6000806040838503121561032c57600080fd5b82516001600160a01b038116811461034357600080fd5b60208401519092506001600160401b038082111561036057600080fd5b818501915085601f83011261037457600080fd5b815181811115610386576103866102df565b604051601f8201601f19908116603f011681019083821181831017156103ae576103ae6102df565b816040528281528860208487010111156103c757600080fd5b6103d88360208301602088016102f5565b80955050505050509250929050565b600082516103f98184602087016102f5565b9190910192915050565b60208152600082518060208401526104228160408501602087016102f5565b601f01601f19169190910160400192915050565b6102bb806104456000396000f3fe60806040523661001357610011610017565b005b6100115b610027610022610067565b61009f565b565b606061004e838360405180606001604052806027815260200161025f602791396100c3565b9392505050565b6001600160a01b03163b151590565b90565b600061009a7f360894a13ba1a3210667c828492db98dca3e2076cc3735a920a3ca505d382bbc546001600160a01b031690565b905090565b3660008037600080366000845af43d6000803e8080156100be573d6000f35b3d6000fd5b6060600080856001600160a01b0316856040516100e0919061020f565b600060405180830381855af49150503d806000811461011b576040519150601f19603f3d011682016040523d82523d6000602084013e610120565b606091505b50915091506101318683838761013b565b9695505050505050565b606083156101af5782516000036101a8576001600160a01b0385163b6101a85760405162461bcd60e51b815260206004820152601d60248201527f416464726573733a2063616c6c20746f206e6f6e2d636f6e747261637400000060448201526064015b60405180910390fd5b50816101b9565b6101b983836101c1565b949350505050565b8151156101d15781518083602001fd5b8060405162461bcd60e51b815260040161019f919061022b565b60005b838110156102065781810151838201526020016101ee565b50506000910152565b600082516102218184602087016101eb565b9190910192915050565b602081526000825180602084015261024a8160408501602087016101eb565b601f01601f1916919091016040019291505056fe416464726573733a206c6f772d6c6576656c2064656c65676174652063616c6c206661696c6564a264697066735822122047c96fd97037eafd7c208e77a83e655da1bdd54ad0afd7db9304b763d6aab8e564736f6c63430008120033416464726573733a206c6f772d6c6576656c2064656c65676174652063616c6c206661696c6564a2646970667358221220ee3b68292de772224335d93456753f3492d2e18c34b2fb5e57e6c425dfa3a56a64736f6c6343000812003360c0604052306080523480156200001557600080fd5b506040516200463738038062004637833981016040819052620000389162000119565b6001600160a01b03811660a052806200005062000058565b50506200014b565b600054610100900460ff1615620000c55760405162461bcd60e51b815260206004820152602760248201527f496e697469616c697a61626c653a20636f6e747261637420697320696e697469604482015266616c697a696e6760c81b606482015260840160405180910390fd5b60005460ff9081161462000117576000805460ff191660ff9081179091556040519081527f7f26b83ff96e1f2b6a682f133852f6798a09c465da95921460cefb38474024989060200160405180910390a15b565b6000602082840312156200012c57600080fd5b81516001600160a01b03811681146200014457600080fd5b9392505050565b60805160a051614479620001be600039600081816103810152818161073c015281816107bd01528181610caf01528181610ea0015281816110c8015281816113400152611e9e01526000818161063f0152818161067f0152818161084e0152818161088e015261092101526144796000f3fe6080604052600436106101695760003560e01c80639015799d116100d1578063c4d66de81161008a578063d6311ea611610064578063d6311ea614610460578063ed894cd314610480578063f23a6e6114610496578063f399e22e146104c357600080fd5b8063c4d66de814610409578063c54124be14610429578063d087d2881461044b57600080fd5b80639015799d14610332578063a6d83ea814610352578063b0d691fe14610372578063b61d27f6146103a5578063bc197c81146103c5578063c399ec88146103f457600080fd5b80634a58db19116101235780634a58db19146102845780634d44560d1461028c5780634f1ef286146102ac57806352d1902d146102bf5780637937b8f7146102d45780638da5cb5b146102f457600080fd5b806223de291461017557806301ffc9a71461019c578063150b7a02146101d157806318dfb3c7146102165780633659cfe6146102365780633a871cdd1461025657600080fd5b3661017057005b600080fd5b34801561018157600080fd5b5061019a6101903660046136dc565b5050505050505050565b005b3480156101a857600080fd5b506101bc6101b736600461378c565b6104e3565b60405190151581526020015b60405180910390f35b3480156101dd57600080fd5b506101fd6101ec3660046137b6565b630a85bd0160e11b95945050505050565b6040516001600160e01b031990911681526020016101c8565b34801561022257600080fd5b5061019a61023136600461386c565b610535565b34801561024257600080fd5b5061019a6102513660046138d7565b610635565b34801561026257600080fd5b506102766102713660046138f4565b610714565b6040519081526020016101c8565b61019a61073a565b34801561029857600080fd5b5061019a6102a7366004613947565b6107b3565b61019a6102ba3660046139fe565b610844565b3480156102cb57600080fd5b50610276610914565b3480156102e057600080fd5b506101bc6102ef366004613a61565b6109c7565b34801561030057600080fd5b5060005461031a906201000090046001600160a01b031681565b6040516001600160a01b0390911681526020016101c8565b34801561033e57600080fd5b506101bc61034d366004613aa2565b610a50565b34801561035e57600080fd5b506101bc61036d366004613a61565b610b9b565b34801561037e57600080fd5b507f000000000000000000000000000000000000000000000000000000000000000061031a565b3480156103b157600080fd5b5061019a6103c0366004613b3b565b610c40565b3480156103d157600080fd5b506101fd6103e0366004613b8a565b63bc197c8160e01b98975050505050505050565b34801561040057600080fd5b50610276610c8f565b34801561041557600080fd5b5061019a6104243660046138d7565b610d20565b34801561043557600080fd5b5061043e610deb565b6040516101c89190613c77565b34801561045757600080fd5b50610276610e79565b34801561046c57600080fd5b5061019a61047b366004613c8a565b610ecf565b34801561048c57600080fd5b5061027660025481565b3480156104a257600080fd5b506101fd6104b1366004613d36565b63f23a6e6160e01b9695505050505050565b3480156104cf57600080fd5b5061019a6104de3660046139fe565b610fe3565b60006001600160e01b03198216630a85bd0160e11b148061051457506001600160e01b03198216630271189760e51b145b8061052f57506001600160e01b031982166301ffc9a760e01b145b92915050565b61053d6110bd565b8281146105875760405162461bcd60e51b815260206004820152601360248201527277726f6e67206172726179206c656e6774687360681b60448201526064015b60405180910390fd5b60005b8381101561062e5761061c8585838181106105a7576105a7613d9f565b90506020020160208101906105bc91906138d7565b60008585858181106105d0576105d0613d9f565b90506020028101906105e29190613db5565b8080601f01602080910402602001604051908101604052809392919081815260200183838082843760009201919091525061115292505050565b8061062681613e11565b91505061058a565b5050505050565b6001600160a01b037f000000000000000000000000000000000000000000000000000000000000000016300361067d5760405162461bcd60e51b815260040161057e90613e2a565b7f00000000000000000000000000000000000000000000000000000000000000006001600160a01b03166106c66000805160206142fd833981519152546001600160a01b031690565b6001600160a01b0316146106ec5760405162461bcd60e51b815260040161057e90613e76565b6106f5816111c2565b60408051600080825260208201909252610711918391906111ca565b50565b600061071e611335565b61072884846113ad565b905061073382611459565b9392505050565b7f000000000000000000000000000000000000000000000000000000000000000060405163b760faf960e01b81523060048201526001600160a01b03919091169063b760faf99034906024016000604051808303818588803b15801561079f57600080fd5b505af115801561062e573d6000803e3d6000fd5b6107bb6114a6565b7f000000000000000000000000000000000000000000000000000000000000000060405163040b850f60e31b81526001600160a01b03848116600483015260248201849052919091169063205c287890604401600060405180830381600087803b15801561082857600080fd5b505af115801561083c573d6000803e3d6000fd5b505050505050565b6001600160a01b037f000000000000000000000000000000000000000000000000000000000000000016300361088c5760405162461bcd60e51b815260040161057e90613e2a565b7f00000000000000000000000000000000000000000000000000000000000000006001600160a01b03166108d56000805160206142fd833981519152546001600160a01b031690565b6001600160a01b0316146108fb5760405162461bcd60e51b815260040161057e90613e76565b610904826111c2565b610910828260016111ca565b5050565b6000306001600160a01b037f000000000000000000000000000000000000000000000000000000000000000016146109b45760405162461bcd60e51b815260206004820152603860248201527f555550535570677261646561626c653a206d757374206e6f742062652063616c60448201527f6c6564207468726f7567682064656c656761746563616c6c0000000000000000606482015260840161057e565b506000805160206142fd83398151915290565b6000806109d56002546114fd565b90506000610a1885858080601f01602080910402602001604051908101604052809392919081815260200183838082843760009201919091525061158f92505050565b9050610a3582828051602091820120825192909101919091201490565b15610a455760019250505061052f565b506000949350505050565b600080610a9286868080601f01602080910402602001604051908101604052809392919081815260200183838082843760009201919091525061188e92505050565b9050610b7c6002898984604051602001610aae93929190613ec2565b60408051601f1981840301815290829052610ac891613ef2565b602060405180830381855afa158015610ae5573d6000803e3d6000fd5b5050506040513d601f19601f82011682018060405250810190610b089190613f0e565b604051806101200160405280610100815260200161434461010091396040518060400160405280600381526020016201000160e81b81525087878080601f016020809104026020016040519081016040528093929190818152602001838380828437600092019190915250611bc292505050565b15610b8b576001915050610b91565b60009150505b9695505050505050565b6000610bdc83838080601f016020809104026020016040519081016040528093929190818152602001838380828437600092019190915250611c0792505050565b604051602001610bec9190613ef2565b604051602081830303815290604052805190602001206001604051602001610c149190613f61565b6040516020818303038152906040528051906020012003610c375750600161052f565b50600092915050565b610c486110bd565b610c89848484848080601f01602080910402602001604051908101604052809392919081815260200183838082843760009201919091525061115292505050565b50505050565b6040516370a0823160e01b81523060048201526000906001600160a01b037f000000000000000000000000000000000000000000000000000000000000000016906370a08231906024015b602060405180830381865afa158015610cf7573d6000803e3d6000fd5b505050506040513d601f19601f82011682018060405250810190610d1b9190613f0e565b905090565b600054610100900460ff1615808015610d405750600054600160ff909116105b80610d5a5750303b158015610d5a575060005460ff166001145b610d765760405162461bcd60e51b815260040161057e90613fd7565b6000805460ff191660011790558015610d99576000805461ff0019166101001790555b610da282611e6b565b8015610910576000805461ff0019169055604051600181527f7f26b83ff96e1f2b6a682f133852f6798a09c465da95921460cefb38474024989060200160405180910390a15050565b60018054610df890613f27565b80601f0160208091040260200160405190810160405280929190818152602001828054610e2490613f27565b8015610e715780601f10610e4657610100808354040283529160200191610e71565b820191906000526020600020905b815481529060010190602001808311610e5457829003601f168201915b505050505081565b604051631aab3f0d60e11b8152306004820152600060248201819052906001600160a01b037f000000000000000000000000000000000000000000000000000000000000000016906335567e1a90604401610cda565b610edd868686868686610a50565b610f1c5760405162461bcd60e51b815260206004820152601060248201526f1d995c9a599e54da59c819985a5b195960821b604482015260640161057e565b610f268484610b9b565b610f655760405162461bcd60e51b815260206004820152601060248201526f1d995c9a599e54dd588819985a5b195960821b604482015260640161057e565b610f6f84846109c7565b610fb05760405162461bcd60e51b81526020600482015260126024820152711d995c9a599e539bdb98d94819985a5b195960721b604482015260640161057e565b6000805462010000600160b01b031916620100006001600160a01b038a1602179055610fda611ee7565b50505050505050565b600054610100900460ff16158080156110035750600054600160ff909116105b8061101d5750303b15801561101d575060005460ff166001145b6110395760405162461bcd60e51b815260040161057e90613fd7565b6000805460ff19166001179055801561105c576000805461ff0019166101001790555b61106583611e6b565b6001611071838261406b565b5080156110b8576000805461ff0019169055604051600181527f7f26b83ff96e1f2b6a682f133852f6798a09c465da95921460cefb38474024989060200160405180910390a15b505050565b336001600160a01b037f000000000000000000000000000000000000000000000000000000000000000016148061110457506000546201000090046001600160a01b031633145b6111505760405162461bcd60e51b815260206004820181905260248201527f6163636f756e743a206e6f74204f776e6572206f7220456e747279506f696e74604482015260640161057e565b565b600080846001600160a01b0316848460405161116e9190613ef2565b60006040518083038185875af1925050503d80600081146111ab576040519150601f19603f3d011682016040523d82523d6000602084013e6111b0565b606091505b50915091508161062e57805160208201fd5b6107116114a6565b7f4910fdfa16fed3260ed0e7147f7cc6da11a60208b5b9406d12a635614ffd91435460ff16156111fd576110b883611efe565b826001600160a01b03166352d1902d6040518163ffffffff1660e01b8152600401602060405180830381865afa925050508015611257575060408051601f3d908101601f1916820190925261125491810190613f0e565b60015b6112ba5760405162461bcd60e51b815260206004820152602e60248201527f45524331393637557067726164653a206e657720696d706c656d656e7461746960448201526d6f6e206973206e6f74205555505360901b606482015260840161057e565b6000805160206142fd83398151915281146113295760405162461bcd60e51b815260206004820152602960248201527f45524331393637557067726164653a20756e737570706f727465642070726f786044820152681a58589b195555525160ba1b606482015260840161057e565b506110b8838383611f9a565b336001600160a01b037f000000000000000000000000000000000000000000000000000000000000000016146111505760405162461bcd60e51b815260206004820152601c60248201527f6163636f756e743a206e6f742066726f6d20456e747279506f696e7400000000604482015260640161057e565b7f19457468657265756d205369676e6564204d6573736167653a0a3332000000006000908152601c829052603c812061142a6113ed610140860186613db5565b8080601f0160208091040260200160405190810160405280939291908181526020018383808284376000920191909152508593925050611fbf9050565b6000546201000090046001600160a01b0390811691161461144f57600191505061052f565b5060009392505050565b801561071157604051600090339060001990849084818181858888f193505050503d806000811461062e576040519150601f19603f3d011682016040523d82523d6000602084013e61062e565b6000546201000090046001600160a01b03163314806114c457503330145b6111505760405162461bcd60e51b815260206004820152600a60248201526937b7363c9037bbb732b960b11b604482015260640161057e565b6060600061150a83611fe3565b60010190506000816001600160401b0381111561152957611529613973565b6040519080825280601f01601f191660200182016040528015611553576020820181803683370190505b5090508181016020015b600019016f181899199a1a9b1b9c1cb0b131b232b360811b600a86061a8153600a850494508461155d57509392505050565b6060600080806115a085601e6120bb565b925092509250826000146115ea5760405162461bcd60e51b81526020600482015260116024820152701294d3d3881c185c9cd94819985a5b1959607a1b604482015260640161057e565b6001826000815181106115ff576115ff613d9f565b602002602001015160000151600481111561161c5761161c614140565b146116695760405162461bcd60e51b815260206004820152601c60248201527f4578706563746564204a575420746f20626520616e206f626a65637400000000604482015260640161057e565b60015b8181101561183b57600383828151811061168857611688613d9f565b60200260200101516000015160048111156116a5576116a5614140565b146116c25760405162461bcd60e51b815260040161057e90614156565b60006117138483815181106116d9576116d9613d9f565b6020026020010151602001518584815181106116f7576116f7613d9f565b602002602001015160600151896128c39092919063ffffffff16565b9050611745604051806040016040528060058152602001646e6f6e636560d81b8152508261298f90919063ffffffff16565b6000036118285760038461175a84600161419e565b8151811061176a5761176a613d9f565b602002602001015160000151600481111561178757611787614140565b146117d45760405162461bcd60e51b815260206004820152601d60248201527f4578706563746564206e6f6e636520746f206265206120737472696e67000000604482015260640161057e565b61181d846117e384600161419e565b815181106117f3576117f3613d9f565b6020026020010151602001518584600161180d919061419e565b815181106116f7576116f7613d9f565b979650505050505050565b61183360028361419e565b91505061166c565b60405162461bcd60e51b815260206004820152602260248201527f436f756c64206e6f742066696e64206e6f6e636520696e204a5754206f626a6560448201526118dd60f21b606482015260840161057e565b606060008290506000600382516118a591906141b1565b9050600060036118b583826141c5565b6118bf91906141b1565b6003845160026118cf919061419e565b6118d991906141d8565b6118e49060046141ec565b6118ee91906141c5565b90506000816001600160401b0381111561190a5761190a613973565b6040519080825280601f01601f191660200182016040528015611934576020820181803683370190505b5090506000805b855161194883600361419e565b11611a92576119b786838151811061196257611962613d9f565b016020015160f81c8761197685600161419e565b8151811061198657611986613d9f565b016020015160f81c8861199a86600261419e565b815181106119aa576119aa613d9f565b016020015160f81c612ab4565b8685815181106119c9576119c9613d9f565b01602001876119d987600161419e565b815181106119e9576119e9613d9f565b01602001886119f988600261419e565b81518110611a0957611a09613d9f565b0160200189611a1989600361419e565b81518110611a2957611a29613d9f565b6001600160f81b0319861660001a9101602001536001600160f81b0319851660001a90536001600160f81b0319851660001a90536001600160f81b0319851660001a905350505050600481611a7e919061419e565b9050611a8b60038361419e565b915061193b565b8415611bb657600086868851611aa891906141c5565b81518110611ab857611ab8613d9f565b016020015160f81c905060006002879003611af7578760018951611adc91906141c5565b81518110611aec57611aec613d9f565b016020015160f81c90505b6000806000611b0e8560ff168560ff166000612ab4565b5092509250925082888781518110611b2857611b28613d9f565b60200101906001600160f81b031916908160001a9053508188611b4c88600161419e565b81518110611b5c57611b5c613d9f565b60200101906001600160f81b031916908160001a90535089600203611bb0578088611b8888600261419e565b81518110611b9857611b98613d9f565b60200101906001600160f81b031916908160001a9053505b50505050505b50909695505050505050565b6000806060611bd2848688612bcf565b9092509050818015611bfa5750611bf760208251611bf091906141c5565b8290612c65565b87145b925050505b949350505050565b606060008080611c1885601e6120bb565b92509250925082600014611c625760405162461bcd60e51b81526020600482015260116024820152701294d3d3881c185c9cd94819985a5b1959607a1b604482015260640161057e565b600182600081518110611c7757611c77613d9f565b6020026020010151600001516004811115611c9457611c94614140565b14611ce15760405162461bcd60e51b815260206004820152601c60248201527f4578706563746564204a575420746f20626520616e206f626a65637400000000604482015260640161057e565b60015b81811015611e23576003838281518110611d0057611d00613d9f565b6020026020010151600001516004811115611d1d57611d1d614140565b14611d3a5760405162461bcd60e51b815260040161057e90614156565b6000611d518483815181106116d9576116d9613d9f565b9050611d816040518060400160405280600381526020016239bab160e91b8152508261298f90919063ffffffff16565b600003611e1057600384611d9684600161419e565b81518110611da657611da6613d9f565b6020026020010151600001516004811115611dc357611dc3614140565b146117d45760405162461bcd60e51b815260206004820152601b60248201527f45787065637465642073756220746f206265206120737472696e670000000000604482015260640161057e565b611e1b60028361419e565b915050611ce4565b60405162461bcd60e51b815260206004820181905260248201527f436f756c64206e6f742066696e642073756220696e204a5754206f626a656374604482015260640161057e565b6000805462010000600160b01b031916620100006001600160a01b038481168202929092178084556040519190048216927f0000000000000000000000000000000000000000000000000000000000000000909216917f47e55c76e7a6f1fd8996a1da8008c1ea29699cca35e7bcd057f2dec313b6e5de91a350565b60028054906000611ef783613e11565b9190505550565b6001600160a01b0381163b611f6b5760405162461bcd60e51b815260206004820152602d60248201527f455243313936373a206e657720696d706c656d656e746174696f6e206973206e60448201526c1bdd08184818dbdb9d1c9858dd609a1b606482015260840161057e565b6000805160206142fd83398151915280546001600160a01b0319166001600160a01b0392909216919091179055565b611fa383612ca5565b600082511180611fb05750805b156110b857610c898383612ce5565b6000806000611fce8585612d0a565b91509150611fdb81612d4f565b509392505050565b60008072184f03e93ff9f4daa797ed6e38ed64bf6a1f0160401b83106120225772184f03e93ff9f4daa797ed6e38ed64bf6a1f0160401b830492506040015b6d04ee2d6d415b85acef8100000000831061204e576d04ee2d6d415b85acef8100000000830492506020015b662386f26fc10000831061206c57662386f26fc10000830492506010015b6305f5e1008310612084576305f5e100830492506008015b612710831061209857612710830492506004015b606483106120aa576064830492506002015b600a831061052f5760010192915050565b6000606060008085905060006120eb60405180606001604052806000815260200160008152602001600081525090565b6120f487612e99565b60208201519096509091506000908161210b61364f565b8651855110156128ab5760008786600001518151811061212d5761212d613d9f565b01602001516001600160f81b0319169050607b60f81b81148061215d5750605b60f81b6001600160f81b03198216145b15612251578361216c81613e11565b945050612179868b612f42565b909750915086612199575060039950600097506128bc9650505050505050565b8560400151600019146121dc57898660400151815181106121bc576121bc613d9f565b602002602001015160a00180518091906121d590614203565b60ff169052505b607b60f81b6001600160f81b03198216146121f85760026121fb565b60015b8290600481111561220e5761220e614140565b9081600481111561222157612221614140565b90525085516020808401919091526001604084018190529087015161224691906141c5565b604087015250612897565b607d60f81b6001600160f81b03198216148061227a5750605d60f81b6001600160f81b03198216145b1561246b576000607d60f81b6001600160f81b031983161461229d5760026122a0565b60015b90506000600188602001516122b591906141c5565b94505b8b85815181106122ca576122ca613d9f565b60200260200101519350836040015180156122e757508360800151155b15612395578160048111156122fe576122fe614140565b8451600481111561231157612311614140565b1461232e575060019b50600099506128bc98505050505050505050565b6000196040890152875161234390600161419e565b8c868151811061235557612355613d9f565b6020026020010151606001818152505060018c868151811061237957612379613d9f565b60209081029190910101519015156080909101525060016123a7565b8461239f81614222565b9550506122b8565b806123c4575060019b50600099506128bc98505050505050505050565b841561241c578b85815181106123dc576123dc613d9f565b60200260200101519350836040015180156123f957508360800151155b1561240a576040880185905261241c565b8461241481614222565b9550506123c4565b84600003612463578b858151811061243657612436613d9f565b602002602001015193508360400151801561245357508360800151155b1561246357600f85900b60408901525b505050612897565b6001600160f81b03198116601160f91b036124fd5761248b868b8a612ffe565b945084156124a75750929850600096506128bc95505050505050565b836124b181613e11565b9450508560400151600019146124f757898660400151815181106124d7576124d7613d9f565b602002602001015160a00180518091906124f090614203565b60ff169052505b50612897565b600160fd1b6001600160f81b0319821614806125265750601160f81b6001600160f81b03198216145b8061253e5750600960f91b6001600160f81b03198216145b806125565750600560fa1b6001600160f81b03198216145b156125615750612897565b6001600160f81b03198116601d60f91b03612587576001866020015161224691906141c5565b6001600160f81b03198116600b60fa1b03612715578560400151600019141580156125e5575060028a8760400151815181106125c5576125c5613d9f565b60200260200101516000015160048111156125e2576125e2614140565b14155b8015612624575060018a87604001518151811061260457612604613d9f565b602002602001015160000151600481111561262157612621614140565b14155b156124f7576001866020015161263a91906141c5565b92505b60028a848151811061265157612651613d9f565b602002602001015160000151600481111561266e5761266e614140565b14806126a8575060018a848151811061268957612689613d9f565b60200260200101516000015160048111156126a6576126a6614140565b145b15612703578983815181106126bf576126bf613d9f565b60200260200101516040015180156126f257508983815181106126e4576126e4613d9f565b602002602001015160800151155b1561270357604086018390526124f7565b8261270d81614222565b93505061263d565b600360fc1b6001600160f81b03198216108015906127415750603960f81b6001600160f81b0319821611155b806127595750602d60f81b6001600160f81b03198216145b806127715750603360f91b6001600160f81b03198216145b806127895750601d60fa1b6001600160f81b03198216145b806127a15750603760f91b6001600160f81b03198216145b1561284e5785604001516000191461284357898660400151815181106127c9576127c9613d9f565b60200260200101519150600160048111156127e6576127e6614140565b825160048111156127f9576127f9614140565b1480612828575060038251600481111561281557612815614140565b148015612828575060a082015160ff1615155b15612843575060019950600097506128bc9650505050505050565b61248b868b8a6132a1565b600160fd1b6001600160f81b031982161080159061287a5750603f60f91b6001600160f81b0319821611155b15612895575060019950600097506128bc9650505050505050565b505b8451856128a382613e11565b90525061210b565b505050506020015160009550925050505b9250925092565b60608360006128d285856141c5565b6001600160401b038111156128e9576128e9613973565b6040519080825280601f01601f191660200182016040528015612913576020820181803683370190505b509050845b848110156129855782818151811061293257612932613d9f565b01602001516001600160f81b0319168261294c88846141c5565b8151811061295c5761295c613d9f565b60200101906001600160f81b031916908160001a9053508061297d81613e11565b915050612918565b5095945050505050565b8151815160009184918491908111156129a6575080515b60005b81811015612a7a578281815181106129c3576129c3613d9f565b602001015160f81c60f81b6001600160f81b0319168482815181106129ea576129ea613d9f565b01602001516001600160f81b0319161015612a0d5760001994505050505061052f565b828181518110612a1f57612a1f613d9f565b602001015160f81c60f81b6001600160f81b031916848281518110612a4657612a46613d9f565b01602001516001600160f81b0319161115612a6857600194505050505061052f565b80612a7281613e11565b9150506129a9565b50815183511015612a9257600019935050505061052f565b815183511115612aa8576001935050505061052f565b6000935050505061052f565b60408051606081018252818152600091829182918291601089901b600889901b17871791603f601284901c811692600c85901c821692600686901c831692861691906142bd60208301398481518110612b0f57612b0f613d9f565b602001015160f81c60f81b98506040518060600160405280604081526020016142bd604091398381518110612b4657612b46613d9f565b602001015160f81c60f81b97506040518060600160405280604081526020016142bd604091398281518110612b7d57612b7d613d9f565b602001015160f81c60f81b96506040518060600160405280604081526020016142bd604091398181518110612bb457612bb4613d9f565b602001015160f81c60f81b9550505050505093509350935093565b600060606000855185518551888888604051602001612bf396959493929190614239565b604051602081830303815290604052905083516001600160401b03811115612c1d57612c1d613973565b6040519080825280601f01601f191660200182016040528015612c47576020820181803683370190505b50915083516020830182516020840160055afa925050935093915050565b600080612c7383602061419e565b90508084511015612c9b57838360405163de59ba1360e01b815260040161057e92919061429a565b9092015192915050565b612cae81611efe565b6040516001600160a01b038216907fbc7cd75a20ee27fd9adebab32041f755214dbc6bffa90cc0225b39da2e5c2d3b90600090a250565b6060610733838360405180606001604052806027815260200161431d6027913961342d565b6000808251604103612d405760208301516040840151606085015160001a612d348782858561349b565b94509450505050612d48565b506000905060025b9250929050565b6000816004811115612d6357612d63614140565b03612d6b5750565b6001816004811115612d7f57612d7f614140565b03612dcc5760405162461bcd60e51b815260206004820152601860248201527f45434453413a20696e76616c6964207369676e61747572650000000000000000604482015260640161057e565b6002816004811115612de057612de0614140565b03612e2d5760405162461bcd60e51b815260206004820152601f60248201527f45434453413a20696e76616c6964207369676e6174757265206c656e67746800604482015260640161057e565b6003816004811115612e4157612e41614140565b036107115760405162461bcd60e51b815260206004820152602260248201527f45434453413a20696e76616c6964207369676e6174757265202773272076616c604482015261756560f01b606482015260840161057e565b612ebd60405180606001604052806000815260200160008152602001600081525090565b606060006040518060600160405280600081526020016000815260200160001981525090506000846001600160401b03811115612efc57612efc613973565b604051908082528060200260200182016040528015612f3557816020015b612f2261364f565b815260200190600190039081612f1a5790505b5091959194509092505050565b6000612f4c61364f565b8251846020015110612f8a5760008360018551612f6991906141c5565b81518110612f7957612f79613d9f565b602002602001015191509150612d48565b6040805160c08101825260008082526020808301829052928201819052606082018190526080820181905260a0820152908501518451829186918110612fd257612fd2613d9f565b6020026020010181905250846020018051809190612fef90613e11565b90525060019590945092505050565b82516000908161300c61364f565b86518761301882613e11565b9052505b8451875110156132935760008588600001518151811061303e5761303e613d9f565b01602001516001600160f81b0319169050601160f91b8190036130a1576130658888612f42565b90935091508261307c575050508452506003610733565b61309482600361308d87600161419e565b8b5161355f565b6000945050505050610733565b605c60f882901c1480156130c15750855188516130bf90600161419e565b105b1561327d578751886130d282613e11565b9052508751865187919081106130ea576130ea613d9f565b6020910101516001600160f81b031916601160f91b148061313357508588600001518151811061311c5761311c613d9f565b6020910101516001600160f81b031916602f60f81b145b8061316657508588600001518151811061314f5761314f613d9f565b6020910101516001600160f81b031916601760fa1b145b8061319957508588600001518151811061318257613182613d9f565b6020910101516001600160f81b031916603360f91b145b806131cc5750858860000151815181106131b5576131b5613d9f565b6020910101516001600160f81b031916603960f91b145b806131ff5750858860000151815181106131e8576131e8613d9f565b6020910101516001600160f81b031916603760f91b145b8061323257508588600001518151811061321b5761321b613d9f565b6020910101516001600160f81b031916603160f91b145b8061326557508588600001518151811061324e5761324e613d9f565b6020910101516001600160f81b031916601d60fa1b145b15613270575061327f565b5050508452506001610733565b505b86518761328b82613e11565b90525061301c565b505084525060029392505050565b8251600090819081806132b261364f565b8651895110156133c757868960000151815181106132d2576132d2613d9f565b01602001516001600160f81b0319169250600160fd1b8314806133025750600960f81b6001600160f81b03198416145b8061331a5750600560f91b6001600160f81b03198416145b806133325750600d60f81b6001600160f81b03198416145b8061334a5750600b60fa1b6001600160f81b03198416145b806133625750607d60f81b6001600160f81b03198416145b8061337a5750605d60f81b6001600160f81b03198416145b1561338857600194506133c7565b602060f884901c108061339f5750607f60f884901c115b156133b35750505085525060019050610733565b8851896133bf82613e11565b9052506132b2565b846133db5750505085525060029050610733565b6133e58989612f42565b9092509050816133fe5750505085525060039050610733565b61340f816004868c6000015161355f565b88518961341b82614222565b90525060009998505050505050505050565b6060600080856001600160a01b03168560405161344a9190613ef2565b600060405180830381855af49150503d8060008114613485576040519150601f19603f3d011682016040523d82523d6000602084013e61348a565b606091505b5091509150610b91868383876135b1565b6000807f7fffffffffffffffffffffffffffffff5d576e7357a4501ddfe92f46681b20a08311156134d25750600090506003613556565b6040805160008082526020820180845289905260ff881692820192909252606081018690526080810185905260019060a0016020604051602081039080840390855afa158015613526573d6000803e3d6000fd5b5050604051601f1901519150506001600160a01b03811661354f57600060019250925050613556565b9150600090505b94509492505050565b8383600481111561357257613572614140565b9081600481111561358557613585614140565b90525060208401919091526001604084018190526060840191909152608083015250600060a090910152565b60608315613620578251600003613619576001600160a01b0385163b6136195760405162461bcd60e51b815260206004820152601d60248201527f416464726573733a2063616c6c20746f206e6f6e2d636f6e7472616374000000604482015260640161057e565b5081611bff565b611bff83838151156136355781518083602001fd5b8060405162461bcd60e51b815260040161057e9190613c77565b6040805160c08101909152806000815260006020820181905260408201819052606082018190526080820181905260a09091015290565b6001600160a01b038116811461071157600080fd5b60008083601f8401126136ad57600080fd5b5081356001600160401b038111156136c457600080fd5b602083019150836020828501011115612d4857600080fd5b60008060008060008060008060c0898b0312156136f857600080fd5b883561370381613686565b9750602089013561371381613686565b9650604089013561372381613686565b95506060890135945060808901356001600160401b038082111561374657600080fd5b6137528c838d0161369b565b909650945060a08b013591508082111561376b57600080fd5b506137788b828c0161369b565b999c989b5096995094979396929594505050565b60006020828403121561379e57600080fd5b81356001600160e01b03198116811461073357600080fd5b6000806000806000608086880312156137ce57600080fd5b85356137d981613686565b945060208601356137e981613686565b93506040860135925060608601356001600160401b0381111561380b57600080fd5b6138178882890161369b565b969995985093965092949392505050565b60008083601f84011261383a57600080fd5b5081356001600160401b0381111561385157600080fd5b6020830191508360208260051b8501011115612d4857600080fd5b6000806000806040858703121561388257600080fd5b84356001600160401b038082111561389957600080fd5b6138a588838901613828565b909650945060208701359150808211156138be57600080fd5b506138cb87828801613828565b95989497509550505050565b6000602082840312156138e957600080fd5b813561073381613686565b60008060006060848603121561390957600080fd5b83356001600160401b0381111561391f57600080fd5b8401610160818703121561393257600080fd5b95602085013595506040909401359392505050565b6000806040838503121561395a57600080fd5b823561396581613686565b946020939093013593505050565b634e487b7160e01b600052604160045260246000fd5b60006001600160401b03808411156139a3576139a3613973565b604051601f8501601f19908116603f011681019082821181831017156139cb576139cb613973565b816040528093508581528686860111156139e457600080fd5b858560208301376000602087830101525050509392505050565b60008060408385031215613a1157600080fd5b8235613a1c81613686565b915060208301356001600160401b03811115613a3757600080fd5b8301601f81018513613a4857600080fd5b613a5785823560208401613989565b9150509250929050565b60008060208385031215613a7457600080fd5b82356001600160401b03811115613a8a57600080fd5b613a968582860161369b565b90969095509350505050565b60008060008060008060608789031215613abb57600080fd5b86356001600160401b0380821115613ad257600080fd5b613ade8a838b0161369b565b90985096506020890135915080821115613af757600080fd5b613b038a838b0161369b565b90965094506040890135915080821115613b1c57600080fd5b50613b2989828a0161369b565b979a9699509497509295939492505050565b60008060008060608587031215613b5157600080fd5b8435613b5c81613686565b93506020850135925060408501356001600160401b03811115613b7e57600080fd5b6138cb8782880161369b565b60008060008060008060008060a0898b031215613ba657600080fd5b8835613bb181613686565b97506020890135613bc181613686565b965060408901356001600160401b0380821115613bdd57600080fd5b613be98c838d01613828565b909850965060608b0135915080821115613c0257600080fd5b613c0e8c838d01613828565b909650945060808b013591508082111561376b57600080fd5b60005b83811015613c42578181015183820152602001613c2a565b50506000910152565b60008151808452613c63816020860160208601613c27565b601f01601f19169290920160200192915050565b6020815260006107336020830184613c4b565b60008060008060008060006080888a031215613ca557600080fd5b8735613cb081613686565b965060208801356001600160401b0380821115613ccc57600080fd5b613cd88b838c0161369b565b909850965060408a0135915080821115613cf157600080fd5b613cfd8b838c0161369b565b909650945060608a0135915080821115613d1657600080fd5b50613d238a828b0161369b565b989b979a50959850939692959293505050565b60008060008060008060a08789031215613d4f57600080fd5b8635613d5a81613686565b95506020870135613d6a81613686565b9450604087013593506060870135925060808701356001600160401b03811115613d9357600080fd5b613b2989828a0161369b565b634e487b7160e01b600052603260045260246000fd5b6000808335601e19843603018112613dcc57600080fd5b8301803591506001600160401b03821115613de657600080fd5b602001915036819003821315612d4857600080fd5b634e487b7160e01b600052601160045260246000fd5b600060018201613e2357613e23613dfb565b5060010190565b6020808252602c908201527f46756e6374696f6e206d7573742062652063616c6c6564207468726f7567682060408201526b19195b1959d85d1958d85b1b60a21b606082015260800190565b6020808252602c908201527f46756e6374696f6e206d7573742062652063616c6c6564207468726f7567682060408201526b6163746976652070726f787960a01b606082015260800190565b828482376000838201601760f91b81528351613ee5816001840160208801613c27565b0160010195945050505050565b60008251613f04818460208701613c27565b9190910192915050565b600060208284031215613f2057600080fd5b5051919050565b600181811c90821680613f3b57607f821691505b602082108103613f5b57634e487b7160e01b600052602260045260246000fd5b50919050565b6000808354613f6f81613f27565b60018281168015613f875760018114613f9c57613fcb565b60ff1984168752821515830287019450613fcb565b8760005260208060002060005b85811015613fc25781548a820152908401908201613fa9565b50505082870194505b50929695505050505050565b6020808252602e908201527f496e697469616c697a61626c653a20636f6e747261637420697320616c72656160408201526d191e481a5b9a5d1a585b1a5e995960921b606082015260800190565b601f8211156110b857600081815260208120601f850160051c8101602086101561404c5750805b601f850160051c820191505b8181101561083c57828155600101614058565b81516001600160401b0381111561408457614084613973565b614098816140928454613f27565b84614025565b602080601f8311600181146140cd57600084156140b55750858301515b600019600386901b1c1916600185901b17855561083c565b600085815260208120601f198616915b828110156140fc578886015182559484019460019091019084016140dd565b508582101561411a5787850151600019600388901b60f8161c191681555b5050505050600190811b01905550565b634e487b7160e01b600052601260045260246000fd5b634e487b7160e01b600052602160045260246000fd5b60208082526028908201527f4578706563746564204a575420746f20636f6e7461696e206f6e6c7920737472604082015267696e67206b65797360c01b606082015260800190565b8082018082111561052f5761052f613dfb565b6000826141c0576141c061412a565b500690565b8181038181111561052f5761052f613dfb565b6000826141e7576141e761412a565b500490565b808202811582820484141761052f5761052f613dfb565b600060ff821660ff810361421957614219613dfb565b60010192915050565b60008161423157614231613dfb565b506000190190565b8681528560208201528460408201526000845161425d816060850160208901613c27565b845190830190614274816060840160208901613c27565b845191019061428a816060840160208801613c27565b0160600198975050505050505050565b6040815260006142ad6040830185613c4b565b9050826020830152939250505056fe4142434445464748494a4b4c4d4e4f505152535455565758595a6162636465666768696a6b6c6d6e6f707172737475767778797a303132333435363738392d5f360894a13ba1a3210667c828492db98dca3e2076cc3735a920a3ca505d382bbc416464726573733a206c6f772d6c6576656c2064656c65676174652063616c6c206661696c6564c61e4b8d980041ab0c39de06ed6b03187e9e3c6eb6649ec58176d3ed4e5a004a1422a0ee0098f6a0d5d1a364eb18a3e866dd59d8eda78008eba5966868be01baba31c2756a30bb7c2c98fab5bd55d8eb17d6f22fbc3057649f9796c49283d25fd94175ea3b4c1d1e055a29feb5c3ec9984a8b9b280cf1d6171faaef7e53b9891d3b76f58fcb1e03a4a7278d76d0c1d76e3b081f4dc233bba4d90b351949faafb38e9cce83190cdf0160dfbbd8d633bd505561fee13dcb7547f7b6c40797c79cfa13d809e45e2e6a82e07abcae2df7bad1e14af0fa633144f68bc4183ee428a5e9ca89d9e35381c6087cce73a6ab5db5728cc2801754c29fc9d89d2f3fdb84e6ba26469706673582212208b0de582bad91d7ddd5b851ff241a3bf3aa205980d69b46d4cc917706b6c545a64736f6c63430008120033",
  "devdoc": {
    "kind": "dev",
    "methods": {},
    "version": 1
  },
  "userdoc": {
    "kind": "user",
    "methods": {
      "createAccount(address,uint256,string)": {
        "notice": "create an account, and return its address. returns the address even if the account is already deployed. Note that during UserOperation execution, this method is called only if the account is not deployed. This method returns an existing account address so that entryPoint.getSenderAddress() would work even after account creation"
      },
      "getAddress(address,uint256,string)": {
        "notice": "calculate the counterfactual address of this account as it would be returned by createAccount()"
      }
    },
    "notice": "A sample factory contract for NonZKGoogleAccount A UserOperations \"initCode\" holds the address of the factory, and a method call (to createAccount, in this sample factory). The factory's createAccount returns the target account address even if it is already installed. This way, the entryPoint.getSenderAddress() can be called either before or after the account is created.",
    "version": 1
  },
  "storageLayout": {
    "storage": [],
    "types": null
  }
}